:100000000C94DE000C94FB000C94FB000C94FB00A1
:100010000C9494050C94FB000C94FB000C94FB00D6
:100020000C94FB000C94FB000C94FB000C94FB0064
:100030000C94FB000C94FB000C94FB000C94FB0054
:100040000C94FB000C94FB000C94FB000C94FB0044
:100050000C94FB0032014B0164017D019601960175
:1000600096019601960196019601960196019601D8
:1000700096019601960196019601960196019601C8
:1000800096019601960196019601960196019601B8
:100090009601960132014B0164017D01AB01C4015F
:1000A000DD01F6010F020F020F020F020F020F0215
:1000B0000F020F020F020F020F020F020F020F02B8
:1000C0000F020F020F020F020F020F020F020F02A8
:1000D0000F020F020F020F020F020F02AB01C40149
:1000E000DD01F601240238024C026002740274023F
:1000F0007402740274027402740274027402740250
:10010000740274027402740274027402740274023F
:10011000740274027402740274027402740274022F
:1001200074027402240238024C02600280028202CD
:100130008402860288028802880288028802880275
:10014000880288028802880288028802880288025F
:10015000880288028802880288028802880288024F
:10016000880288028802880288028802800282024D
:10017000840286029C029E02A002A202A402A402A1
:10018000A402A402A402A402A402A402A402A4023F
:10019000A402A402A402A402A402A402A402A4022F
:1001A000A402A402A402A402A402A402A402A4021F
:1001B000A402A4029C029E02A002A20211241FBE5D
:1001C000CFE5D4E0DEBFCDBF10E0A0E6B0E0EAE3CB
:1001D000F1E102C005900D92AC3BB107D9F720E0E8
:1001E000ACEBB0E001C01D92A53CB207E1F70E9464
:1001F000FA030C949B080C9400006FEF0E947502A8
:100200000895CF93DF93CDB7DEB72A970FB6F89452
:10021000DEBF0FBECDBF9AE0E1E6F0E0DE01119651
:1002200001900D929A95E1F7E1E0F0E0EC0FFD1FEF
:10023000E60FF11D60810E9491022A960FB6F89494
:10024000DEBF0FBECDBFDF91CF91089590E0FC01DE
:10025000E154F109E432F10508F068C0E65DFF4FB2
:100260000C94B705442359F02AB381E090E002C012
:10027000880F991F6A95E2F7822B8ABB08952AB3EB
:1002800081E090E002C0880F991F6A95E2F780959F
:1002900082238ABB0895442359F027B381E090E07C
:1002A00002C0880F991F6A95E2F7822B87BB0895D9
:1002B00027B381E090E002C0880F991F6A95E2F7AA
:1002C0008095822387BB0895442359F024B381E0AD
:1002D00090E002C0880F991F6A95E2F7822B84BBD9
:1002E000089524B381E090E002C0880F991F6A95B9
:1002F000E2F78095822384BB0895442359F021B30B
:1003000081E090E002C0880F991F6A95E2F7822B86
:1003100081BB089521B381E090E002C0880F991F4E
:100320006A95E2F78095822381BB08958BE790E080
:100330009F938F930E94BD050F900F90089590E0BA
:10034000FC01E154F109E432F10508F068C0E25B18
:10035000FF4F0C94B705442359F02BB381E090E094
:1003600002C0880F991F6A95E2F7822B8BBB089514
:100370002BB381E090E002C0880F991F6A95E2F7E5
:10038000809582238BBB0895442359F028B381E0E4
:1003900090E002C0880F991F6A95E2F7822B88BB14
:1003A000089528B381E090E002C0880F991F6A95F4
:1003B000E2F78095822388BB0895442359F025B342
:1003C00081E090E002C0880F991F6A95E2F7822BC6
:1003D00085BB089525B381E090E002C0880F991F86
:1003E0006A95E2F78095822385BB0895442359F0EE
:1003F00022B381E090E002C0880F991F6A95E2F76E
:10040000822B82BB089522B381E090E002C0880F66
:10041000991F6A95E2F78095822382BB08958BE746
:1004200090E09F938F930E94BD050F900F900895C9
:1004300090E0FC01E154F109E432F10508F054C008
:10044000EE58FF4F0C94B70549B381E090E09C0152
:10045000062E02C0220F331F0A94E2F7842F90E089
:100460008223932302C0959587956A95E2F70895B4
:1004700046B381E090E09C01062E02C0220F331F9C
:100480000A94E2F7842F90E08223932302C095958B
:1004900087956A95E2F7089543B381E090E09C0167
:1004A000062E02C0220F331F0A94E2F7842F90E039
:1004B0008223932302C0959587956A95E2F7089564
:1004C00040B381E090E09C01062E02C0220F331F52
:1004D0000A94E2F7842F90E08223932302C095953B
:1004E00087956A95E2F70895089590E0FC01E1543C
:1004F000F109E432F10560F4EA56FF4F0C94B705B8
:100500006ABB089567BB089564BB089561BB0895F5
:100510008BE790E09F938F930E94BD050F900F9003
:10052000089590E0FC01E154F109E432F10560F432
:10053000E654FF4F0C94B7056BBB089568BB089554
:1005400065BB089562BB08958BE790E09F938F93FE
:100550000E94BD050F900F9008956295607F8234D0
:1005600079F018F4813431F00895833479F08434CB
:1005700099F008958BB38F708BBB8BB3862B8BBB9D
:1005800088B38F7088BB88B3862B88BB85B38F7088
:1005900085BB85B3862B85BB82B38F7082BB82B34C
:1005A000682B62BB08956FE082E40E94750260EFE1
:1005B00082E40E9491020895EF92FF920F931F939D
:1005C000CF93DF93CDB7DEB760970FB6F894DEBF59
:1005D0000FBECDBF80E1EBE6F0E0DE0111960190A9
:1005E0000D928A95E1F7EE24EA94F12C39C041E0AE
:1005F00060E082E40E949F0141E061E082E40E94A9
:100600009F0141E062E082E40E949F0141E063E0DB
:1006100082E40E949F0140E06F2D82E40E949F01CE
:1006200010E019C064E0610F82E40E941802082FF4
:10063000811110C0EF2DF0E0EE0FFF1FEE0FFF1F36
:1006400081E090E08C0F9D1FE80FF91FE10FF11D75
:10065000E08003C01F5F143028F3002321F0F394DF
:1006600093E09F1520F68E2D60960FB6F894DEBFAE
:100670000FBECDBFDF91CF911F910F91FF90EF90F3
:10068000089541E060E081E40E949F018FE99FE0CE
:100690000197F1F700C0000040E060E081E40E94B3
:1006A0009F018FE99FE00197F1F700C000000895D6
:1006B000CF93C82F682F62956F7081E40E94AD02BE
:1006C00040E061E081E40E949F010E9441036C2FA1
:1006D00081E40E94AD0240E061E081E40E949F015C
:1006E0000E9441038FEC97E00197F1F700C00000F2
:1006F000CF91089541E064E081E40E94260141E049
:1007000065E081E40E94260141E066E081E40E9408
:10071000260141E067E081E40E94260141E060E0BB
:1007200081E40E94260141E061E081E40E9426010B
:1007300040E061E081E40E949F0182E00E94580352
:100740008FE99FE00197F1F700C0000088E20E9466
:1007500058038FE99FE00197F1F700C000008EE099
:100760000E9458038FE99FE00197F1F700C0000055
:1007700081E00E9458038FE99FE00197F1F700C0E4
:10078000000086E00E9458038FE99FE00197F1F78F
:1007900000C000000895CF93C82F682F62956F7036
:1007A00081E40E94AD0241E061E081E40E949F018A
:1007B0000E9441036C2F81E40E94AD0241E061E0A0
:1007C00081E40E949F010E9441038FEC97E0019712
:1007D000F1F700C00000CF910895CF93DF93EC01B3
:1007E00003C00E94CB03219688818111FACFDF914B
:1007F000CF910895CF93DF9300D000D000D0CDB734
:10080000DEB78FE384BB0E94D30284E40E94FD0024
:100810000E94A9050E947A038FE890E00E94ED03F0
:10082000FE01319686E0DF011D928A95E9F70E946C
:10083000DC028F3F09F4F3C0813309F0DAC0109273
:1008400060008FE385BBBFE72AE186E0B15020401E
:100850008040E1F700C0000081E00E945803AFE44F
:10086000B6E41197F1F700C000008FE990E00E9414
:10087000ED031FEF03C00E94DC02182F1F3FD9F3C6
:10088000812F0E94CB03BFE72AE186E0B1502040D0
:100890008040E1F700C00000812F90E0C097880FF2
:1008A000982F990F990F890F8093BD001FEF03C0F8
:1008B0000E94DC02182F1F3FD9F3812F0E94CB0327
:1008C0009FE7AAE1B6E09150A040B040E1F700C038
:1008D00000008091BD00180F10531093BD0081E0FF
:1008E0000E9458038FE496E40197F1F700C00000DE
:1008F00086EA90E00E94ED031FEF03C00E94DC0235
:10090000182F1F3FD9F3812F0E94CB039FE7AAE145
:10091000B6E09150A040B040E1F700C00000812F48
:1009200090E0C097880F982F990F990F890F8093A7
:10093000BC001FEF03C00E94DC02182F1F3FD9F339
:10094000812F0E94CB032FE78AE196E0215080405F
:100950009040E1F700C000008091BC00180F1053D8
:100960001093BC0081E00E945803AFE4B6E41197F5
:10097000F1F700C000008BEA90E00E94ED031FEF4A
:1009800003C00E94DC02182F1F3FD9F3812F0E9461
:10099000CB03BFE72AE186E0B15020408040E1F779
:1009A00000C00000812F90E0C097880F982F990F0A
:1009B000990F890F8093BE001FEF03C00E94DC02D5
:1009C000182F1F3FD9F3812F0E94CB039FE7AAE185
:1009D000B6E09150A040B040E1F700C00000809127
:1009E000BE00180F10531093BE0081E0809360008A
:1009F00016C081E00E9458038FE496E40197F1F756
:100A000000C0000080EB90E00E94ED039FEFA3ED9B
:100A1000B0E39150A040B040E1F700C000008091E9
:100A2000BE008C3338F01092BE008091BC008F5F06
:100A30008093BC008091BC008C333CF01092BC00D1
:100A40008091BD008F5F8093BD008091BD00883193
:100A500034F01092BD001092BC001092BE00909134
:100A6000BE003DEC939F812D112486958695869539
:100A7000880F282F220F220F820F981B99838091B5
:100A8000BE00839F812D11248695869586958A8345
:100A90002091BC0087E62802912D1124959595950B
:100AA00027FD9395492F440F342F330F330F340F05
:100AB000231B2B839C839091BD009802812D1124D0
:100AC0008595859597FD8395382F330F232F220F1A
:100AD000220F230F921B9D838E8310E022C085B3CB
:100AE0008F6385BB25B381E090E0012E02C0880FA3
:100AF000991F0A94E2F78095822385BBE1E0F0E03C
:100B0000EC0FFD1FE10FF11D17FDFA95608184E4E4
:100B10000E9401018FE097E20197F1F700C0000009
:100B20001F5F1630E4F283CE1F920F920FB60F9222
:100B300011248F9380916000882329F08091BE005A
:100B40008F5F8093BE008F910F900FBE0F901F900C
:100B5000189582B5886082BD85B5816085BD85B5F3
:100B6000846085BD789489B7806489BF0895EE0F4D
:100B7000FF1F0590F491E02D0994A0E0B0E0E3ECB4
:100B8000F5E00C947408AE014B5F5F4FFA01619180
:100B90007191AF018091C1009091C2000E94D30574
:100BA000E2E00C949008ABE0B0E0E9EDF5E00C94E5
:100BB00064086C017B018A01FC0117821682838123
:100BC00081FFCCC1CE0101963C01F6019381F70172
:100BD00093FD859193FF81917F01882309F4BAC128
:100BE000853239F493FD859193FF81917F018532A0
:100BF00029F4B60190E00E94CA07E7CF912C212C7E
:100C0000312CFFE1F315D8F08B3279F038F48032D3
:100C100079F08332A1F4232D20611DC08D3261F063
:100C2000803369F4232D216016C0832D8260382E15
:100C3000E32DE4603E2E2AC0F32DF8601DC037FC82
:100C40002DC020ED280F2A3040F08E32B9F436FC4A
:100C500081C1232D2064322E19C036FE06C08AE0E1
:100C6000989E200D1124922E11C0EAE02E9E200D98
:100C70001124222EF32DF0623F2E08C08C3621F471
:100C8000832D8068382E02C0883641F4F70193FD29
:100C9000859193FF81917F018111B3CF982F9F7D23
:100CA0009554933028F40C5F1F4F9FE399830DC038
:100CB000833631F0833771F0833509F059C021C094
:100CC000F801808189830E5F1F4F88248394912CC3
:100CD000530113C02801F2E04F0E511CF801A0800F
:100CE000B18036FE03C0692D70E002C06FEF7FEF68
:100CF000C5010E94BF074C018201F32DFF773F2EF3
:100D000016C0280122E0420E511CF801A080B180DB
:100D100036FE03C0692D70E002C06FEF7FEFC501A2
:100D20000E94B4074C01F32DF0683F2E820133FC82
:100D30001BC0822D90E088169906B0F4B60180E2BF
:100D400090E00E94CA072A94F4CFF50137FC859100
:100D500037FE81915F01B60190E00E94CA07211021
:100D60002A9421E0821A91088114910471F7E8C055
:100D7000843611F0893641F5F80137FE07C06081ED
:100D80007181828193810C5F1F4F08C060817181E6
:100D9000072E000C880B990B0E5F1F4FF32DFF766B
:100DA0003F2E97FF09C090958095709561957F4F74
:100DB0008F4F9F4FF0683F2E2AE030E0A3010E9442
:100DC0000608882E861845C0853731F4232D2F7EDE
:100DD000B22E2AE030E025C0932D997FB92E8F36B0
:100DE000C1F018F4883579F0B5C0803719F088372C
:100DF00021F0B0C0E92FE061BE2EB4FE0DC0FB2D86
:100E0000F460BF2E09C034FE0AC0292F2660B22E1E
:100E100006C028E030E005C020E130E002C020E15B
:100E200032E0F801B7FE07C0608171818281938151
:100E30000C5F1F4F06C06081718180E090E00E5F03
:100E40001F4FA3010E940608882E8618FB2DFF77EE
:100E50003F2E36FE0DC0232D2E7FA22E891458F46E
:100E600034FE0BC032FC09C0832D8E7EA82E05C037
:100E7000B82CA32C03C0B82C01C0B92CA4FE0FC001
:100E8000FE01E80DF11D8081803321F49A2D997EB9
:100E9000A92E09C0A2FE06C0B394B39404C08A2D43
:100EA000867809F0B394A3FC11C0A0FE06C0B2146A
:100EB00088F4280C922C9B180EC0B21460F4B60172
:100EC00080E290E00E94CA07B394F7CFB21418F4FE
:100ED0002B1802C0982C212CA4FE10C0B60180E370
:100EE00090E00E94CA07A2FE17C0A1FC03C088E7D9
:100EF00090E002C088E590E0B6010CC08A2D8678AB
:100F000059F0A1FE02C08BE201C080E2A7FC8DE295
:100F1000B60190E00E94CA07891438F4B60180E354
:100F200090E00E94CA079A94F7CF8A94F301E80DE3
:100F3000F11D8081B60190E00E94CA078110F5CFB3
:100F4000222009F442CEB60180E290E00E94CA0756
:100F50002A94F6CFF6018681978102C08FEF9FEF2A
:100F60002B96E2E10C948008FC01059061507040E2
:100F70000110D8F7809590958E0F9F1F0895FC0162
:100F80006150704001900110D8F7809590958E0FB8
:100F90009F1F08950F931F93CF93DF93FB0123812E
:100FA00021FD03C08FEF9FEF2CC022FF16C04681AA
:100FB0005781248135814217530744F4A081B181C0
:100FC0009D012F5F3F4F318320838C932681378192
:100FD0002F5F3F4F3783268314C08B01EC01FB0149
:100FE0000084F185E02D0995892BE1F6D80116964C
:100FF0008D919C911797019617969C938E931697B7
:10100000CE01DF91CF911F910F910895FA01AA2788
:10101000283051F1203181F1E8946F936E7F6E5F3B
:101020007F4F8F4F9F4FAF4FB1E03ED0B4E03CD0E9
:10103000670F781F891F9A1FA11D680F791F8A1FCC
:10104000911DA11D6A0F711D811D911DA11D20D033
:1010500009F468943F912AE0269F11243019305DED
:101060003193DEF6CF010895462F4770405D4193DE
:10107000B3E00FD0C9F7F6CF462F4F70405D4A332B
:1010800018F0495D31FD4052419302D0A9F7EACFF3
:10109000B4E0A6959795879577956795BA95C9F722
:1010A00000976105710508959B01AC010A2E069415
:1010B0005795479537952795BA95C9F7620F731FCE
:1010C000841F951FA01D08952F923F924F925F920B
:1010D0006F927F928F929F92AF92BF92CF92DF9248
:1010E000EF92FF920F931F93CF93DF93CDB7DEB7AD
:1010F000CA1BDB0B0FB6F894DEBF0FBECDBF099441
:101100002A88398848885F846E847D848C849B8497
:10111000AA84B984C884DF80EE80FD800C811B81A5
:10112000AA81B981CE0FD11D0FB6F894DEBF0FBED4
:0A113000CDBFED010895F894FFCF44
:10113A00013F065B4F666D7D477F6F3738392F3425
:10114A0035362A3132332D41303D2B6572726F723A
:10115A0020696E2064696F5F73657470696E0070D0
:10116A0072657373203120746F207365743A006856
:10117A006F7572733D006D696E3D007365633D0066
:0C118A0070726573732077726F6E6700DF
:00000001FF
